:100000000C9432020C943C020C943C020C943C0282
:100010000C943C020C943C020C943C020C943C0268
:100020000C943C020C943C020C943C020C943C0258
:100030000C943C020C944F020C943C020C943C0235
:100040000C943C020C943C020C943C020C943C0238
:100050000C943C020C943C020C943C020C943C0228
:100060000C9473020C943C020C943C020C943C02E1
:100070000C943C020C943C020C943C0200000000E6
:100080000000000000000000000000000000000070
:100090000000000000000000000000000000000060
:1000A0000000000000000000000000000000000050
:1000B0000000000000000000000000000000000040
:100460000000000011241FBECFEFD4E0DEBFCDBFDF
:100470000E94D2020C94D5020C9400000E94B70294
:10048000892B19F081E090E008950E949D02892B4C
:10049000C9F70E94C1020097A9F7789408951F92A6
:1004A0000F920FB60F9211242F933F934F935F93A8
:1004B0006F937F938F939F93AF93BF93EF93FF932C
:1004C0000E94A602FF91EF91BF91AF919F918F91F2
:1004D0007F916F915F914F913F912F910F900FBE40
:1004E0000F901F9018951F920F920FB60F92112424
:1004F0002F933F934F935F936F937F938F939F932C
:10050000AF93BF93EF93FF93809178009091790020
:100510000E94AC020E94BF02FF91EF91BF91AF9188
:100520009F918F917F916F915F914F913F912F910B
:100530000F900FBE0F901F90189580E480937C0061
:100540008DE880937A0090E080E00895EAE7F0E09B
:100550008081806480830895893E23E0920710F0B3
:1005600088EE93E084589F4FFC0184910895239A6C
:1005700083E884BD81E085BD90E080E0089587BD7B
:10058000089583EF91E0909389008093880089E03B
:1005900080938100EFE6F0E080818260808390E0CC
:0E05A00080E008950E943E02FFCFF894FFCF46
:00000001FF
